{
  "_format": "hh3-artifact-1",
  "contractName": "DataSharing",
  "sourceName": "contracts/DataSharing.sol",
  "abi": [
    {
      "inputs": [
        {
          "internalType": "address",
          "name": "_consentManager",
          "type": "address"
        }
      ],
      "stateMutability": "nonpayable",
      "type": "constructor"
    },
    {
      "anonymous": false,
      "inputs": [
        {
          "indexed": true,
          "internalType": "address",
          "name": "patient",
          "type": "address"
        },
        {
          "indexed": true,
          "internalType": "address",
          "name": "requester",
          "type": "address"
        },
        {
          "indexed": true,
          "internalType": "uint256",
          "name": "dataTypeId",
          "type": "uint256"
        },
        {
          "indexed": false,
          "internalType": "string",
          "name": "reason",
          "type": "string"
        },
        {
          "indexed": false,
          "internalType": "uint256",
          "name": "timestamp",
          "type": "uint256"
        }
      ],
      "name": "AccessDenied",
      "type": "event"
    },
    {
      "anonymous": false,
      "inputs": [
        {
          "indexed": true,
          "internalType": "address",
          "name": "patient",
          "type": "address"
        },
        {
          "indexed": true,
          "internalType": "address",
          "name": "requester",
          "type": "address"
        },
        {
          "indexed": true,
          "internalType": "uint256",
          "name": "dataTypeId",
          "type": "uint256"
        },
        {
          "indexed": false,
          "internalType": "string",
          "name": "storageURI",
          "type": "string"
        },
        {
          "indexed": false,
          "internalType": "uint256",
          "name": "timestamp",
          "type": "uint256"
        }
      ],
      "name": "AccessGranted",
      "type": "event"
    },
    {
      "anonymous": false,
      "inputs": [
        {
          "indexed": true,
          "internalType": "address",
          "name": "patient",
          "type": "address"
        },
        {
          "indexed": true,
          "internalType": "uint256",
          "name": "dataTypeId",
          "type": "uint256"
        },
        {
          "indexed": true,
          "internalType": "bytes32",
          "name": "recordHash",
          "type": "bytes32"
        },
        {
          "indexed": false,
          "internalType": "string",
          "name": "storageURI",
          "type": "string"
        },
        {
          "indexed": false,
          "internalType": "uint256",
          "name": "timestamp",
          "type": "uint256"
        }
      ],
      "name": "DataRecordRegistered",
      "type": "event"
    },
    {
      "inputs": [
        {
          "internalType": "address",
          "name": "patient",
          "type": "address"
        },
        {
          "internalType": "uint256",
          "name": "dataTypeId",
          "type": "uint256"
        }
      ],
      "name": "accessData",
      "outputs": [
        {
          "internalType": "string",
          "name": "storageURI",
          "type": "string"
        }
      ],
      "stateMutability": "nonpayable",
      "type": "function"
    },
    {
      "inputs": [],
      "name": "consentManager",
      "outputs": [
        {
          "internalType": "contract IConsentManager",
          "name": "",
          "type": "address"
        }
      ],
      "stateMutability": "view",
      "type": "function"
    },
    {
      "inputs": [
        {
          "internalType": "address",
          "name": "patient",
          "type": "address"
        },
        {
          "internalType": "uint256",
          "name": "dataTypeId",
          "type": "uint256"
        }
      ],
      "name": "getLatestRecord",
      "outputs": [
        {
          "components": [
            {
              "internalType": "bytes32",
              "name": "recordHash",
              "type": "bytes32"
            },
            {
              "internalType": "string",
              "name": "storageURI",
              "type": "string"
            },
            {
              "internalType": "uint256",
              "name": "createdAt",
              "type": "uint256"
            }
          ],
          "internalType": "struct DataSharing.DataRecord",
          "name": "",
          "type": "tuple"
        }
      ],
      "stateMutability": "view",
      "type": "function"
    },
    {
      "inputs": [
        {
          "internalType": "address",
          "name": "patient",
          "type": "address"
        },
        {
          "internalType": "uint256",
          "name": "dataTypeId",
          "type": "uint256"
        }
      ],
      "name": "getRecordCount",
      "outputs": [
        {
          "internalType": "uint256",
          "name": "",
          "type": "uint256"
        }
      ],
      "stateMutability": "view",
      "type": "function"
    },
    {
      "inputs": [],
      "name": "owner",
      "outputs": [
        {
          "internalType": "address",
          "name": "",
          "type": "address"
        }
      ],
      "stateMutability": "view",
      "type": "function"
    },
    {
      "inputs": [
        {
          "internalType": "address",
          "name": "patient",
          "type": "address"
        },
        {
          "internalType": "uint256",
          "name": "dataTypeId",
          "type": "uint256"
        },
        {
          "internalType": "bytes32",
          "name": "recordHash",
          "type": "bytes32"
        },
        {
          "internalType": "string",
          "name": "storageURI",
          "type": "string"
        }
      ],
      "name": "registerDataRecord",
      "outputs": [],
      "stateMutability": "nonpayable",
      "type": "function"
    },
    {
      "inputs": [
        {
          "internalType": "address",
          "name": "_consentManager",
          "type": "address"
        }
      ],
      "name": "setConsentManager",
      "outputs": [],
      "stateMutability": "nonpayable",
      "type": "function"
    }
  ],
  "bytecode": "0x608060405234801561000f575f5ffd5b5060405161183338038061183383398181016040528101906100319190610182565b5f73ffffffffffffffffffffffffffffffffffffffff168173ffffffffffffffffffffffffffffffffffffffff160361009f576040517f08c379a000000000000000000000000000000000000000000000000000000000815260040161009690610207565b60405180910390fd5b805f5f6101000a81548173ffffffffffffffffffffffffffffffffffffffff021916908373ffffffffffffffffffffffffffffffffffffffff1602179055503360015f6101000a81548173ffffffffffffffffffffffffffffffffffffffff021916908373ffffffffffffffffffffffffffffffffffffffff16021790555050610225565b5f5ffd5b5f73ffffffffffffffffffffffffffffffffffffffff82169050919050565b5f61015182610128565b9050919050565b61016181610147565b811461016b575f5ffd5b50565b5f8151905061017c81610158565b92915050565b5f6020828403121561019757610196610124565b5b5f6101a48482850161016e565b91505092915050565b5f82825260208201905092915050565b7f496e76616c696420636f6e73656e74206d616e616765720000000000000000005f82015250565b5f6101f16017836101ad565b91506101fc826101bd565b602082019050919050565b5f6020820190508181035f83015261021e816101e5565b9050919050565b611601806102325f395ff3fe608060405234801561000f575f5ffd5b506004361061007b575f3560e01c8063a3796d2111610059578063a3796d21146100e9578063d64bf71214610105578063e75bb26614610135578063efa5a2c1146101535761007b565b80633c9df1ef1461007f5780638da5cb5b1461009b57806398562768146100b9575b5f5ffd5b61009960048036038101906100949190610a93565b610183565b005b6100a3610416565b6040516100b09190610b26565b60405180910390f35b6100d360048036038101906100ce9190610b3f565b61043b565b6040516100e09190610c58565b60405180910390f35b61010360048036038101906100fe9190610c78565b6105be565b005b61011f600480360381019061011a9190610b3f565b6106fd565b60405161012c9190610cb2565b60405180910390f35b61013d610756565b60405161014a9190610d26565b60405180910390f35b61016d60048036038101906101689190610b3f565b61077a565b60405161017a9190610d87565b60405180910390f35b8473ffffffffffffffffffffffffffffffffffffffff163373ffffffffffffffffffffffffffffffffffffffff16146101f1576040517f08c379a00000000000000000000000000000000000000000000000000000000081526004016101e890610df1565b60405180910390fd5b5f8403610233576040517f08c379a000000000000000000000000000000000000000000000000000000000815260040161022a90610e59565b60405180910390fd5b5f5f1b8303610277576040517f08c379a000000000000000000000000000000000000000000000000000000000815260040161026e90610ec1565b60405180910390fd5b5f82829050116102bc576040517f08c379a00000000000000000000000000000000000000000000000000000000081526004016102b390610f29565b60405180910390fd5b5f604051806060016040528085815260200184848080601f0160208091040260200160405190810160405280939291908181526020018383808284375f81840152601f19601f82011690508083019250505050505050815260200142815250905060025f8773ffffffffffffffffffffffffffffffffffffffff1673ffffffffffffffffffffffffffffffffffffffff1681526020019081526020015f205f8681526020019081526020015f2081908060018154018082558091505060019003905f5260205f2090600302015f909190919091505f820151815f015560208201518160010190816103ad9190611168565b5060408201518160020155505083858773ffffffffffffffffffffffffffffffffffffffff167f9489b6e27857c9b410590c4034093affe18415aa06f43421a9717304bb4e340386864260405161040693929190611271565b60405180910390a4505050505050565b60015f9054906101000a900473ffffffffffffffffffffffffffffffffffffffff1681565b61044361094b565b5f60025f8573ffffffffffffffffffffffffffffffffffffffff1673ffffffffffffffffffffffffffffffffffffffff1681526020019081526020015f205f8481526020019081526020015f2090505f8180549050116104d8576040517f08c379a00000000000000000000000000000000000000000000000000000000081526004016104cf906112eb565b60405180910390fd5b80600182805490506104ea9190611336565b815481106104fb576104fa611369565b5b905f5260205f2090600302016040518060600160405290815f820154815260200160018201805461052b90610fa1565b80601f016020809104026020016040519081016040528092919081815260200182805461055790610fa1565b80156105a25780601f10610579576101008083540402835291602001916105a2565b820191905f5260205f20905b81548152906001019060200180831161058557829003601f168201915b5050505050815260200160028201548152505091505092915050565b60015f9054906101000a900473ffffffffffffffffffffffffffffffffffffffff1673ffffffffffffffffffffffffffffffffffffffff163373ffffffffffffffffffffffffffffffffffffffff161461064d576040517f08c379a0000000000000000000000000000000000000000000000000000000008152600401610644906113e0565b60405180910390fd5b5f73ffffffffffffffffffffffffffffffffffffffff168173ffffffffffffffffffffffffffffffffffffffff16036106bb576040517f08c379a00000000000000000000000000000000000000000000000000000000081526004016106b290611448565b60405180910390fd5b805f5f6101000a81548173ffffffffffffffffffffffffffffffffffffffff021916908373ffffffffffffffffffffffffffffffffffffffff16021790555050565b5f60025f8473ffffffffffffffffffffffffffffffffffffffff1673ffffffffffffffffffffffffffffffffffffffff1681526020019081526020015f205f8381526020019081526020015f2080549050905092915050565b5f5f9054906101000a900473ffffffffffffffffffffffffffffffffffffffff1681565b60605f5f5f9054906101000a900473ffffffffffffffffffffffffffffffffffffffff1673ffffffffffffffffffffffffffffffffffffffff1663834ac9ea853386426040518563ffffffff1660e01b81526004016107dc9493929190611466565b602060405180830381865afa1580156107f7573d5f5f3e3d5ffd5b505050506040513d601f19601f8201168201806040525081019061081b91906114de565b9050806108c357823373ffffffffffffffffffffffffffffffffffffffff168573ffffffffffffffffffffffffffffffffffffffff167f2efe55f4ffb7beadbe6b0b75113a537687b75aa4a218ab2873fe46cb88336ad1426040516108809190611553565b60405180910390a46040517f08c379a00000000000000000000000000000000000000000000000000000000081526004016108ba9061157f565b60405180910390fd5b5f6108ce858561043b565b9050833373ffffffffffffffffffffffffffffffffffffffff168673ffffffffffffffffffffffffffffffffffffffff167fdb09b72edfc638661b1fa76222d2c5f75b0345a39132eab4248f67bbeb7ef93b84602001514260405161093492919061159d565b60405180910390a480602001519250505092915050565b60405180606001604052805f8152602001606081526020015f81525090565b5f5ffd5b5f5ffd5b5f73ffffffffffffffffffffffffffffffffffffffff82169050919050565b5f61099b82610972565b9050919050565b6109ab81610991565b81146109b5575f5ffd5b50565b5f813590506109c6816109a2565b92915050565b5f819050919050565b6109de816109cc565b81146109e8575f5ffd5b50565b5f813590506109f9816109d5565b92915050565b5f819050919050565b610a11816109ff565b8114610a1b575f5ffd5b50565b5f81359050610a2c81610a08565b92915050565b5f5ffd5b5f5ffd5b5f5ffd5b5f5f83601f840112610a5357610a52610a32565b5b8235905067ffffffffffffffff811115610a7057610a6f610a36565b5b602083019150836001820283011115610a8c57610a8b610a3a565b5b9250929050565b5f5f5f5f5f60808688031215610aac57610aab61096a565b5b5f610ab9888289016109b8565b9550506020610aca888289016109eb565b9450506040610adb88828901610a1e565b935050606086013567ffffffffffffffff811115610afc57610afb61096e565b5b610b0888828901610a3e565b92509250509295509295909350565b610b2081610991565b82525050565b5f602082019050610b395f830184610b17565b92915050565b5f5f60408385031215610b5557610b5461096a565b5b5f610b62858286016109b8565b9250506020610b73858286016109eb565b9150509250929050565b610b86816109ff565b82525050565b5f81519050919050565b5f82825260208201905092915050565b8281835e5f83830152505050565b5f601f19601f8301169050919050565b5f610bce82610b8c565b610bd88185610b96565b9350610be8818560208601610ba6565b610bf181610bb4565b840191505092915050565b610c05816109cc565b82525050565b5f606083015f830151610c205f860182610b7d565b5060208301518482036020860152610c388282610bc4565b9150506040830151610c4d6040860182610bfc565b508091505092915050565b5f6020820190508181035f830152610c708184610c0b565b905092915050565b5f60208284031215610c8d57610c8c61096a565b5b5f610c9a848285016109b8565b91505092915050565b610cac816109cc565b82525050565b5f602082019050610cc55f830184610ca3565b92915050565b5f819050919050565b5f610cee610ce9610ce484610972565b610ccb565b610972565b9050919050565b5f610cff82610cd4565b9050919050565b5f610d1082610cf5565b9050919050565b610d2081610d06565b82525050565b5f602082019050610d395f830184610d17565b92915050565b5f82825260208201905092915050565b5f610d5982610b8c565b610d638185610d3f565b9350610d73818560208601610ba6565b610d7c81610bb4565b840191505092915050565b5f6020820190508181035f830152610d9f8184610d4f565b905092915050565b7f4f6e6c792070617469656e742063616e207265676973746572000000000000005f82015250565b5f610ddb601983610d3f565b9150610de682610da7565b602082019050919050565b5f6020820190508181035f830152610e0881610dcf565b9050919050565b7f496e76616c6964206461746154797065496400000000000000000000000000005f82015250565b5f610e43601283610d3f565b9150610e4e82610e0f565b602082019050919050565b5f6020820190508181035f830152610e7081610e37565b9050919050565b7f456d707479207265636f726420686173680000000000000000000000000000005f82015250565b5f610eab601183610d3f565b9150610eb682610e77565b602082019050919050565b5f6020820190508181035f830152610ed881610e9f565b9050919050565b7f456d7074792073746f72616765205552490000000000000000000000000000005f82015250565b5f610f13601183610d3f565b9150610f1e82610edf565b602082019050919050565b5f6020820190508181035f830152610f4081610f07565b9050919050565b7f4e487b71000000000000000000000000000000000000000000000000000000005f52604160045260245ffd5b7f4e487b71000000000000000000000000000000000000000000000000000000005f52602260045260245ffd5b5f6002820490506001821680610fb857607f821691505b602082108103610fcb57610fca610f74565b5b50919050565b5f819050815f5260205f209050919050565b5f6020601f8301049050919050565b5f82821b905092915050565b5f6008830261102d7fffffffffffffffffffffffffffffffffffffffffffffffffffffffffffffffff82610ff2565b6110378683610ff2565b95508019841693508086168417925050509392505050565b5f61106961106461105f846109cc565b610ccb565b6109cc565b9050919050565b5f819050919050565b6110828361104f565b61109661108e82611070565b848454610ffe565b825550505050565b5f5f905090565b6110ad61109e565b6110b8818484611079565b505050565b5b818110156110db576110d05f826110a5565b6001810190506110be565b5050565b601f821115611120576110f181610fd1565b6110fa84610fe3565b81016020851015611109578190505b61111d61111585610fe3565b8301826110bd565b50505b505050565b5f82821c905092915050565b5f6111405f1984600802611125565b1980831691505092915050565b5f6111588383611131565b9150826002028217905092915050565b61117182610b8c565b67ffffffffffffffff81111561118a57611189610f47565b5b6111948254610fa1565b61119f8282856110df565b5f60209050601f8311600181146111d0575f84156111be578287015190505b6111c8858261114d565b86555061122f565b601f1984166111de86610fd1565b5f5b82811015611205578489015182556001820191506020850194506020810190506111e0565b86831015611222578489015161121e601f891682611131565b8355505b6001600288020188555050505b505050505050565b828183375f83830152505050565b5f6112508385610d3f565b935061125d838584611237565b61126683610bb4565b840190509392505050565b5f6040820190508181035f83015261128a818587611245565b90506112996020830184610ca3565b949350505050565b7f4e6f207265636f72647320666f722074686973206461746120747970650000005f82015250565b5f6112d5601d83610d3f565b91506112e0826112a1565b602082019050919050565b5f6020820190508181035f830152611302816112c9565b9050919050565b7f4e487b71000000000000000000000000000000000000000000000000000000005f52601160045260245ffd5b5f611340826109cc565b915061134b836109cc565b925082820390508181111561136357611362611309565b5b92915050565b7f4e487b71000000000000000000000000000000000000000000000000000000005f52603260045260245ffd5b7f4e6f7420636f6e7472616374206f776e657200000000000000000000000000005f82015250565b5f6113ca601283610d3f565b91506113d582611396565b602082019050919050565b5f6020820190508181035f8301526113f7816113be565b9050919050565b7f496e76616c696420636f6e73656e74206d616e616765720000000000000000005f82015250565b5f611432601783610d3f565b915061143d826113fe565b602082019050919050565b5f6020820190508181035f83015261145f81611426565b9050919050565b5f6080820190506114795f830187610b17565b6114866020830186610b17565b6114936040830185610ca3565b6114a06060830184610ca3565b95945050505050565b5f8115159050919050565b6114bd816114a9565b81146114c7575f5ffd5b50565b5f815190506114d8816114b4565b92915050565b5f602082840312156114f3576114f261096a565b5b5f611500848285016114ca565b91505092915050565b7f4e6f2076616c696420636f6e73656e74000000000000000000000000000000005f82015250565b5f61153d601083610d3f565b915061154882611509565b602082019050919050565b5f6040820190508181035f83015261156a81611531565b90506115796020830184610ca3565b92915050565b5f6020820190508181035f83015261159681611531565b9050919050565b5f6040820190508181035f8301526115b58185610d4f565b90506115c46020830184610ca3565b939250505056fea26469706673582212200296700f8a996a387ceba8cd6f5bbf6044f159ef77d20a4275dadf403028ec5b64736f6c634300081c0033",
  "linkReferences": {},
  "deployedLinkReferences": {},
  "immutableReferences": {},
  "inputSourceName": "project/contracts/DataSharing.sol",
  "buildInfoId": "solc-0_8_28-20f76e4e50a305dff623e3782495af12eb4326d3"
}